{
  "abi": [
    {
      "inputs": [
        {
          "internalType": "address",
          "name": "deployer",
          "type": "address"
        },
        {
          "internalType": "uint256",
          "name": "salt",
          "type": "uint256"
        },
        {
          "internalType": "bytes",
          "name": "creationCode",
          "type": "bytes"
        }
      ],
      "name": "computeAddress",
      "outputs": [
        {
          "internalType": "address",
          "name": "hookAddress",
          "type": "address"
        }
      ],
      "stateMutability": "pure",
      "type": "function"
    },
    {
      "inputs": [
        {
          "internalType": "address",
          "name": "deployer",
          "type": "address"
        },
        {
          "internalType": "uint160",
          "name": "flags",
          "type": "uint160"
        },
        {
          "internalType": "uint256",
          "name": "seed",
          "type": "uint256"
        },
        {
          "internalType": "bytes",
          "name": "creationCode",
          "type": "bytes"
        },
        {
          "internalType": "bytes",
          "name": "constructorArgs",
          "type": "bytes"
        }
      ],
      "name": "find",
      "outputs": [
        {
          "internalType": "address",
          "name": "",
          "type": "address"
        },
        {
          "internalType": "bytes32",
          "name": "",
          "type": "bytes32"
        }
      ],
      "stateMutability": "pure",
      "type": "function"
    }
  ],
  "bytecode": {
    "object": "0x6103f461003a600b82828239805160001a60731461002d57634e487b7160e01b600052600060045260246000fd5b30600052607381538281f3fe73000000000000000000000000000000000000000030146080604052600436106100405760003560e01c8063013a236e14610045578063ab86511814610075575b600080fd5b610058610053366004610285565b6100a7565b6040516001600160a01b0390911681526020015b60405180910390f35b6100886100833660046102de565b610105565b604080516001600160a01b03909316835260208301919091520161006c565b8051602091820120604080516001600160f81b03198185015260609590951b6bffffffffffffffffffffffff191660218601526035850193909352605580850191909152825180850390910181526075909301909152815191012090565b600080600080858560405160200161011e9291906103a1565b60408051601f198184030181529190529050865b612710811015610174576101478a82846100a7565b92506001600160a01b03891660ff60981b84160361016c579193509091506101c09050565b600101610132565b60405162461bcd60e51b815260206004820152601e60248201527f486f6f6b4d696e65723a20636f756c64206e6f742066696e642073616c740000604482015260640160405180910390fd5b9550959350505050565b6001600160a01b03811681146101df57600080fd5b50565b634e487b7160e01b600052604160045260246000fd5b600082601f83011261020957600080fd5b813567ffffffffffffffff80821115610224576102246101e2565b604051601f8301601f19908116603f0116810190828211818310171561024c5761024c6101e2565b8160405283815286602085880101111561026557600080fd5b836020870160208301376000602085830101528094505050505092915050565b60008060006060848603121561029a57600080fd5b83356102a5816101ca565b925060208401359150604084013567ffffffffffffffff8111156102c857600080fd5b6102d4868287016101f8565b9150509250925092565b600080600080600060a086880312156102f657600080fd5b8535610301816101ca565b94506020860135610311816101ca565b935060408601359250606086013567ffffffffffffffff8082111561033557600080fd5b61034189838a016101f8565b9350608088013591508082111561035757600080fd5b50610364888289016101f8565b9150509295509295909350565b6000815160005b818110156103925760208185018101518683015201610378565b50600093019283525090919050565b60006103b66103b08386610371565b84610371565b94935050505056fea2646970667358221220253bd3998d5bfa2fcd3181b7084458f894fb018b066a5ff22f7bdd465b18e33b64736f6c63430008150033",
    "linkReferences": {}
  },
  "methodIdentifiers": {
    "computeAddress(address,uint256,bytes)": "013a236e",
    "find(address,uint160,uint256,bytes,bytes)": "ab865118"
  },
  "id": 71
}