{
  "abi": [
    {
      "inputs": [
        {
          "internalType": "contract IPoolManager",
          "name": "_poolManager",
          "type": "address"
        }
      ],
      "stateMutability": "nonpayable",
      "type": "constructor"
    },
    {
      "inputs": [
        {
          "internalType": "address",
          "name": "hooks",
          "type": "address"
        }
      ],
      "name": "HookAddressNotValid",
      "type": "error"
    },
    {
      "inputs": [],
      "name": "HookNotImplemented",
      "type": "error"
    },
    {
      "inputs": [],
      "name": "InvalidPool",
      "type": "error"
    },
    {
      "inputs": [],
      "name": "LockFailure",
      "type": "error"
    },
    {
      "inputs": [],
      "name": "NotPoolManager",
      "type": "error"
    },
    {
      "inputs": [],
      "name": "NotSelf",
      "type": "error"
    },
    {
      "inputs": [
        {
          "internalType": "address",
          "name": "",
          "type": "address"
        },
        {
          "components": [
            {
              "internalType": "Currency",
              "name": "currency0",
              "type": "address"
            },
            {
              "internalType": "Currency",
              "name": "currency1",
              "type": "address"
            },
            {
              "internalType": "uint24",
              "name": "fee",
              "type": "uint24"
            },
            {
              "internalType": "int24",
              "name": "tickSpacing",
              "type": "int24"
            },
            {
              "internalType": "contract IHooks",
              "name": "hooks",
              "type": "address"
            }
          ],
          "internalType": "struct PoolKey",
          "name": "",
          "type": "tuple"
        },
        {
          "internalType": "uint256",
          "name": "",
          "type": "uint256"
        },
        {
          "internalType": "uint256",
          "name": "",
          "type": "uint256"
        },
        {
          "internalType": "bytes",
          "name": "",
          "type": "bytes"
        }
      ],
      "name": "afterDonate",
      "outputs": [
        {
          "internalType": "bytes4",
          "name": "",
          "type": "bytes4"
        }
      ],
      "stateMutability": "nonpayable",
      "type": "function"
    },
    {
      "inputs": [
        {
          "internalType": "address",
          "name": "",
          "type": "address"
        },
        {
          "components": [
            {
              "internalType": "Currency",
              "name": "currency0",
              "type": "address"
            },
            {
              "internalType": "Currency",
              "name": "currency1",
              "type": "address"
            },
            {
              "internalType": "uint24",
              "name": "fee",
              "type": "uint24"
            },
            {
              "internalType": "int24",
              "name": "tickSpacing",
              "type": "int24"
            },
            {
              "internalType": "contract IHooks",
              "name": "hooks",
              "type": "address"
            }
          ],
          "internalType": "struct PoolKey",
          "name": "",
          "type": "tuple"
        },
        {
          "internalType": "uint160",
          "name": "",
          "type": "uint160"
        },
        {
          "internalType": "int24",
          "name": "",
          "type": "int24"
        },
        {
          "internalType": "bytes",
          "name": "",
          "type": "bytes"
        }
      ],
      "name": "afterInitialize",
      "outputs": [
        {
          "internalType": "bytes4",
          "name": "",
          "type": "bytes4"
        }
      ],
      "stateMutability": "nonpayable",
      "type": "function"
    },
    {
      "inputs": [
        {
          "internalType": "address",
          "name": "",
          "type": "address"
        },
        {
          "components": [
            {
              "internalType": "Currency",
              "name": "currency0",
              "type": "address"
            },
            {
              "internalType": "Currency",
              "name": "currency1",
              "type": "address"
            },
            {
              "internalType": "uint24",
              "name": "fee",
              "type": "uint24"
            },
            {
              "internalType": "int24",
              "name": "tickSpacing",
              "type": "int24"
            },
            {
              "internalType": "contract IHooks",
              "name": "hooks",
              "type": "address"
            }
          ],
          "internalType": "struct PoolKey",
          "name": "key",
          "type": "tuple"
        },
        {
          "components": [
            {
              "internalType": "int24",
              "name": "tickLower",
              "type": "int24"
            },
            {
              "internalType": "int24",
              "name": "tickUpper",
              "type": "int24"
            },
            {
              "internalType": "int256",
              "name": "liquidityDelta",
              "type": "int256"
            }
          ],
          "internalType": "struct IPoolManager.ModifyPositionParams",
          "name": "",
          "type": "tuple"
        },
        {
          "internalType": "BalanceDelta",
          "name": "",
          "type": "int256"
        },
        {
          "internalType": "bytes",
          "name": "",
          "type": "bytes"
        }
      ],
      "name": "afterModifyPosition",
      "outputs": [
        {
          "internalType": "bytes4",
          "name": "",
          "type": "bytes4"
        }
      ],
      "stateMutability": "nonpayable",
      "type": "function"
    },
    {
      "inputs": [
        {
          "internalType": "PoolId",
          "name": "",
          "type": "bytes32"
        }
      ],
      "name": "afterModifyPositionCount",
      "outputs": [
        {
          "internalType": "uint256",
          "name": "count",
          "type": "uint256"
        }
      ],
      "stateMutability": "view",
      "type": "function"
    },
    {
      "inputs": [
        {
          "internalType": "address",
          "name": "",
          "type": "address"
        },
        {
          "components": [
            {
              "internalType": "Currency",
              "name": "currency0",
              "type": "address"
            },
            {
              "internalType": "Currency",
              "name": "currency1",
              "type": "address"
            },
            {
              "internalType": "uint24",
              "name": "fee",
              "type": "uint24"
            },
            {
              "internalType": "int24",
              "name": "tickSpacing",
              "type": "int24"
            },
            {
              "internalType": "contract IHooks",
              "name": "hooks",
              "type": "address"
            }
          ],
          "internalType": "struct PoolKey",
          "name": "key",
          "type": "tuple"
        },
        {
          "components": [
            {
              "internalType": "bool",
              "name": "zeroForOne",
              "type": "bool"
            },
            {
              "internalType": "int256",
              "name": "amountSpecified",
              "type": "int256"
            },
            {
              "internalType": "uint160",
              "name": "sqrtPriceLimitX96",
              "type": "uint160"
            }
          ],
          "internalType": "struct IPoolManager.SwapParams",
          "name": "",
          "type": "tuple"
        },
        {
          "internalType": "BalanceDelta",
          "name": "",
          "type": "int256"
        },
        {
          "internalType": "bytes",
          "name": "",
          "type": "bytes"
        }
      ],
      "name": "afterSwap",
      "outputs": [
        {
          "internalType": "bytes4",
          "name": "",
          "type": "bytes4"
        }
      ],
      "stateMutability": "nonpayable",
      "type": "function"
    },
    {
      "inputs": [
        {
          "internalType": "PoolId",
          "name": "",
          "type": "bytes32"
        }
      ],
      "name": "afterSwapCount",
      "outputs": [
        {
          "internalType": "uint256",
          "name": "count",
          "type": "uint256"
        }
      ],
      "stateMutability": "view",
      "type": "function"
    },
    {
      "inputs": [
        {
          "internalType": "address",
          "name": "",
          "type": "address"
        },
        {
          "components": [
            {
              "internalType": "Currency",
              "name": "currency0",
              "type": "address"
            },
            {
              "internalType": "Currency",
              "name": "currency1",
              "type": "address"
            },
            {
              "internalType": "uint24",
              "name": "fee",
              "type": "uint24"
            },
            {
              "internalType": "int24",
              "name": "tickSpacing",
              "type": "int24"
            },
            {
              "internalType": "contract IHooks",
              "name": "hooks",
              "type": "address"
            }
          ],
          "internalType": "struct PoolKey",
          "name": "",
          "type": "tuple"
        },
        {
          "internalType": "uint256",
          "name": "",
          "type": "uint256"
        },
        {
          "internalType": "uint256",
          "name": "",
          "type": "uint256"
        },
        {
          "internalType": "bytes",
          "name": "",
          "type": "bytes"
        }
      ],
      "name": "beforeDonate",
      "outputs": [
        {
          "internalType": "bytes4",
          "name": "",
          "type": "bytes4"
        }
      ],
      "stateMutability": "nonpayable",
      "type": "function"
    },
    {
      "inputs": [
        {
          "internalType": "address",
          "name": "",
          "type": "address"
        },
        {
          "components": [
            {
              "internalType": "Currency",
              "name": "currency0",
              "type": "address"
            },
            {
              "internalType": "Currency",
              "name": "currency1",
              "type": "address"
            },
            {
              "internalType": "uint24",
              "name": "fee",
              "type": "uint24"
            },
            {
              "internalType": "int24",
              "name": "tickSpacing",
              "type": "int24"
            },
            {
              "internalType": "contract IHooks",
              "name": "hooks",
              "type": "address"
            }
          ],
          "internalType": "struct PoolKey",
          "name": "",
          "type": "tuple"
        },
        {
          "internalType": "uint160",
          "name": "",
          "type": "uint160"
        },
        {
          "internalType": "bytes",
          "name": "",
          "type": "bytes"
        }
      ],
      "name": "beforeInitialize",
      "outputs": [
        {
          "internalType": "bytes4",
          "name": "",
          "type": "bytes4"
        }
      ],
      "stateMutability": "nonpayable",
      "type": "function"
    },
    {
      "inputs": [
        {
          "internalType": "address",
          "name": "",
          "type": "address"
        },
        {
          "components": [
            {
              "internalType": "Currency",
              "name": "currency0",
              "type": "address"
            },
            {
              "internalType": "Currency",
              "name": "currency1",
              "type": "address"
            },
            {
              "internalType": "uint24",
              "name": "fee",
              "type": "uint24"
            },
            {
              "internalType": "int24",
              "name": "tickSpacing",
              "type": "int24"
            },
            {
              "internalType": "contract IHooks",
              "name": "hooks",
              "type": "address"
            }
          ],
          "internalType": "struct PoolKey",
          "name": "key",
          "type": "tuple"
        },
        {
          "components": [
            {
              "internalType": "int24",
              "name": "tickLower",
              "type": "int24"
            },
            {
              "internalType": "int24",
              "name": "tickUpper",
              "type": "int24"
            },
            {
              "internalType": "int256",
              "name": "liquidityDelta",
              "type": "int256"
            }
          ],
          "internalType": "struct IPoolManager.ModifyPositionParams",
          "name": "",
          "type": "tuple"
        },
        {
          "internalType": "bytes",
          "name": "",
          "type": "bytes"
        }
      ],
      "name": "beforeModifyPosition",
      "outputs": [
        {
          "internalType": "bytes4",
          "name": "",
          "type": "bytes4"
        }
      ],
      "stateMutability": "nonpayable",
      "type": "function"
    },
    {
      "inputs": [
        {
          "internalType": "PoolId",
          "name": "",
          "type": "bytes32"
        }
      ],
      "name": "beforeModifyPositionCount",
      "outputs": [
        {
          "internalType": "uint256",
          "name": "count",
          "type": "uint256"
        }
      ],
      "stateMutability": "view",
      "type": "function"
    },
    {
      "inputs": [
        {
          "internalType": "address",
          "name": "",
          "type": "address"
        },
        {
          "components": [
            {
              "internalType": "Currency",
              "name": "currency0",
              "type": "address"
            },
            {
              "internalType": "Currency",
              "name": "currency1",
              "type": "address"
            },
            {
              "internalType": "uint24",
              "name": "fee",
              "type": "uint24"
            },
            {
              "internalType": "int24",
              "name": "tickSpacing",
              "type": "int24"
            },
            {
              "internalType": "contract IHooks",
              "name": "hooks",
              "type": "address"
            }
          ],
          "internalType": "struct PoolKey",
          "name": "key",
          "type": "tuple"
        },
        {
          "components": [
            {
              "internalType": "bool",
              "name": "zeroForOne",
              "type": "bool"
            },
            {
              "internalType": "int256",
              "name": "amountSpecified",
              "type": "int256"
            },
            {
              "internalType": "uint160",
              "name": "sqrtPriceLimitX96",
              "type": "uint160"
            }
          ],
          "internalType": "struct IPoolManager.SwapParams",
          "name": "",
          "type": "tuple"
        },
        {
          "internalType": "bytes",
          "name": "",
          "type": "bytes"
        }
      ],
      "name": "beforeSwap",
      "outputs": [
        {
          "internalType": "bytes4",
          "name": "",
          "type": "bytes4"
        }
      ],
      "stateMutability": "nonpayable",
      "type": "function"
    },
    {
      "inputs": [
        {
          "internalType": "PoolId",
          "name": "",
          "type": "bytes32"
        }
      ],
      "name": "beforeSwapCount",
      "outputs": [
        {
          "internalType": "uint256",
          "name": "count",
          "type": "uint256"
        }
      ],
      "stateMutability": "view",
      "type": "function"
    },
    {
      "inputs": [],
      "name": "getHooksCalls",
      "outputs": [
        {
          "components": [
            {
              "internalType": "bool",
              "name": "beforeInitialize",
              "type": "bool"
            },
            {
              "internalType": "bool",
              "name": "afterInitialize",
              "type": "bool"
            },
            {
              "internalType": "bool",
              "name": "beforeModifyPosition",
              "type": "bool"
            },
            {
              "internalType": "bool",
              "name": "afterModifyPosition",
              "type": "bool"
            },
            {
              "internalType": "bool",
              "name": "beforeSwap",
              "type": "bool"
            },
            {
              "internalType": "bool",
              "name": "afterSwap",
              "type": "bool"
            },
            {
              "internalType": "bool",
              "name": "beforeDonate",
              "type": "bool"
            },
            {
              "internalType": "bool",
              "name": "afterDonate",
              "type": "bool"
            }
          ],
          "internalType": "struct Hooks.Calls",
          "name": "",
          "type": "tuple"
        }
      ],
      "stateMutability": "pure",
      "type": "function"
    },
    {
      "inputs": [
        {
          "internalType": "bytes",
          "name": "data",
          "type": "bytes"
        }
      ],
      "name": "lockAcquired",
      "outputs": [
        {
          "internalType": "bytes",
          "name": "",
          "type": "bytes"
        }
      ],
      "stateMutability": "nonpayable",
      "type": "function"
    },
    {
      "inputs": [],
      "name": "poolManager",
      "outputs": [
        {
          "internalType": "contract IPoolManager",
          "name": "",
          "type": "address"
        }
      ],
      "stateMutability": "view",
      "type": "function"
    }
  ],
  "bytecode": {
    "object": "0x60a060405234801561001057600080fd5b50604051610d26380380610d2683398101604081905261002f916101d4565b6001600160a01b038116608052806100463061004d565b5050610204565b6100e2816100dd6040805161010081018252600080825260208201819052918101829052606081018290526080810182905260a0810182905260c0810182905260e08101919091525060408051610100810182526000808252602082018190526001928201839052606082018390526080820183905260a082019290925260c0810182905260e081019190915290565b6100e5565b50565b805115156001609f1b8316151514158061010d5750602081015115156001609e1b8316151514155b806101265750604081015115156001609d1b8316151514155b8061013f5750606081015115156001609c1b8316151514155b806101585750608081015115156001609b1b8316151514155b80610171575060a081015115156001609a1b8316151514155b8061018a575060c08101511515600160991b8316151514155b806101a3575060e08101511515600160981b8316151514155b156101d057604051630732d7b560e51b81526001600160a01b038316600482015260240160405180910390fd5b5050565b6000602082840312156101e657600080fd5b81516001600160a01b03811681146101fd57600080fd5b9392505050565b608051610b00610226600039600081816102cc01526103e00152610b006000f3fe608060405234801561001057600080fd5b50600436106100f55760003560e01c8063a910f80f11610097578063dacdbe7711610066578063dacdbe77146102a7578063dc4c90d3146102c7578063e1b4af6914610299578063fe9a6f451461030657600080fd5b8063a910f80f14610258578063ab6291fe14610266578063b47b2fb114610286578063b6a8b0fa1461029957600080fd5b80633440d820116100d35780633440d82014610179578063575e24b41461018c5780635c338d321461019f578063612c39b7146101bf57600080fd5b806305140d4d146100fa57806326776cc11461012d57806330b7cdef1461014d575b600080fd5b61011a6101083660046105d2565b60036020526000908152604090205481565b6040519081526020015b60405180910390f35b61011a61013b3660046105d2565b60026020526000908152604090205481565b61016061015b366004610686565b610319565b6040516001600160e01b03199091168152602001610124565b61016061018736600461070c565b61036c565b61016061019a366004610788565b610387565b61011a6101ad3660046105d2565b60006020819052908152604090205481565b61024b6040805161010081018252600080825260208201819052918101829052606081018290526080810182905260a0810182905260c0810182905260e08101919091525060408051610100810182526000808252602082018190526001928201839052606082018390526080820183905260a082019290925260c0810182905260e081019190915290565b60405161012491906107e7565b610160610187366004610882565b6102796102743660046108f1565b6103d3565b6040516101249190610933565b610160610294366004610686565b6104c1565b610160610187366004610981565b61011a6102b53660046105d2565b60016020526000908152604090205481565b6102ee7f000000000000000000000000000000000000000000000000000000000000000081565b6040516001600160a01b039091168152602001610124565b610160610314366004610788565b61050f565b6000600381610335610330368a90038a018a6109f3565b61055c565b8152602001908152602001600020600081548092919061035490610a93565b909155506330b7cdef60e01b98975050505050505050565b6000604051630a85dc2960e01b815260040160405180910390fd5b6000808061039d610330368990038901896109f3565b815260200190815260200160002060008154809291906103bc90610a93565b909155506315d7892d60e21b979650505050505050565b6060336001600160a01b037f0000000000000000000000000000000000000000000000000000000000000000161461041e5760405163570c108560e11b815260040160405180910390fd5b600080306001600160a01b0316858560405161043b929190610aba565b6000604051808303816000865af19150503d8060008114610478576040519150601f19603f3d011682016040523d82523d6000602084013e61047d565b606091505b509150915081156104915791506104bb9050565b80516000036104b3576040516314815f4760e31b815260040160405180910390fd5b805160208201fd5b92915050565b60006001816104d8610330368a90038a018a6109f3565b815260200190815260200160002060008154809291906104f790610a93565b9091555063b47b2fb160e01b98975050505050505050565b6000600281610526610330368990038901896109f3565b8152602001908152602001600020600081548092919061054590610a93565b9091555063fe9a6f4560e01b979650505050505050565b6000816040516020016105b5919081516001600160a01b03908116825260208084015182169083015260408084015162ffffff169083015260608084015160020b90830152608092830151169181019190915260a00190565b604051602081830303815290604052805190602001209050919050565b6000602082840312156105e457600080fd5b5035919050565b6001600160a01b038116811461060057600080fd5b50565b803561060e816105eb565b919050565b600060a0828403121561062557600080fd5b50919050565b60006060828403121561062557600080fd5b60008083601f84011261064f57600080fd5b50813567ffffffffffffffff81111561066757600080fd5b60208301915083602082850101111561067f57600080fd5b9250929050565b60008060008060008061016087890312156106a057600080fd5b86356106ab816105eb565b95506106ba8860208901610613565b94506106c98860c0890161062b565b9350610120870135925061014087013567ffffffffffffffff8111156106ee57600080fd5b6106fa89828a0161063d565b979a9699509497509295939492505050565b6000806000806000610100868803121561072557600080fd5b8535610730816105eb565b945061073f8760208801610613565b935060c086013561074f816105eb565b925060e086013567ffffffffffffffff81111561076b57600080fd5b6107778882890161063d565b969995985093965092949392505050565b600080600080600061014086880312156107a157600080fd5b85356107ac816105eb565b94506107bb8760208801610613565b93506107ca8760c0880161062b565b925061012086013567ffffffffffffffff81111561076b57600080fd5b600061010082019050825115158252602083015115156020830152604083015115156040830152606083015115156060830152608083015161082d608084018215159052565b5060a083015161084160a084018215159052565b5060c083015161085560c084018215159052565b5060e083015161086960e084018215159052565b5092915050565b8035600281900b811461060e57600080fd5b600080600080600080610120878903121561089c57600080fd5b86356108a7816105eb565b95506108b68860208901610613565b945060c08701356108c6816105eb565b93506108d460e08801610870565b925061010087013567ffffffffffffffff8111156106ee57600080fd5b6000806020838503121561090457600080fd5b823567ffffffffffffffff81111561091b57600080fd5b6109278582860161063d565b90969095509350505050565b600060208083528351808285015260005b8181101561096057858101830151858201604001528201610944565b506000604082860101526040601f19601f8301168501019250505092915050565b600080600080600080610120878903121561099b57600080fd5b86356109a6816105eb565b95506109b58860208901610613565b945060c0870135935060e0870135925061010087013567ffffffffffffffff8111156106ee57600080fd5b803562ffffff8116811461060e57600080fd5b600060a08284031215610a0557600080fd5b60405160a0810181811067ffffffffffffffff82111715610a3657634e487b7160e01b600052604160045260246000fd5b6040528235610a44816105eb565b81526020830135610a54816105eb565b6020820152610a65604084016109e0565b6040820152610a7660608401610870565b6060820152610a8760808401610603565b60808201529392505050565b600060018201610ab357634e487b7160e01b600052601160045260246000fd5b5060010190565b818382376000910190815291905056fea2646970667358221220e8995d5f5d0db4e9e48772020c25afb05da4399b9ba5974a412b78228b23b85564736f6c63430008150033",
    "linkReferences": {}
  },
  "methodIdentifiers": {
    "afterDonate(address,(address,address,uint24,int24,address),uint256,uint256,bytes)": "e1b4af69",
    "afterInitialize(address,(address,address,uint24,int24,address),uint160,int24,bytes)": "a910f80f",
    "afterModifyPosition(address,(address,address,uint24,int24,address),(int24,int24,int256),int256,bytes)": "30b7cdef",
    "afterModifyPositionCount(bytes32)": "05140d4d",
    "afterSwap(address,(address,address,uint24,int24,address),(bool,int256,uint160),int256,bytes)": "b47b2fb1",
    "afterSwapCount(bytes32)": "dacdbe77",
    "beforeDonate(address,(address,address,uint24,int24,address),uint256,uint256,bytes)": "b6a8b0fa",
    "beforeInitialize(address,(address,address,uint24,int24,address),uint160,bytes)": "3440d820",
    "beforeModifyPosition(address,(address,address,uint24,int24,address),(int24,int24,int256),bytes)": "fe9a6f45",
    "beforeModifyPositionCount(bytes32)": "26776cc1",
    "beforeSwap(address,(address,address,uint24,int24,address),(bool,int256,uint160),bytes)": "575e24b4",
    "beforeSwapCount(bytes32)": "5c338d32",
    "getHooksCalls()": "612c39b7",
    "lockAcquired(bytes)": "ab6291fe",
    "poolManager()": "dc4c90d3"
  },
  "id": 69
}